{
  "contractName": "Main",
  "abi": [
    {
      "inputs": [
        {
          "internalType": "contract CentralGov",
          "name": "_centralGov",
          "type": "address"
        },
        {
          "internalType": "contract StateGov",
          "name": "_stateGov",
          "type": "address"
        },
        {
          "internalType": "contract Stakeholder",
          "name": "_stakeholder",
          "type": "address"
        }
      ],
      "stateMutability": "nonpayable",
      "type": "constructor"
    },
    {
      "inputs": [],
      "name": "centralGov",
      "outputs": [
        {
          "internalType": "contract CentralGov",
          "name": "",
          "type": "address"
        }
      ],
      "stateMutability": "view",
      "type": "function",
      "constant": true
    },
    {
      "inputs": [],
      "name": "stakeholder",
      "outputs": [
        {
          "internalType": "contract Stakeholder",
          "name": "",
          "type": "address"
        }
      ],
      "stateMutability": "view",
      "type": "function",
      "constant": true
    },
    {
      "inputs": [],
      "name": "stateGov",
      "outputs": [
        {
          "internalType": "contract StateGov",
          "name": "",
          "type": "address"
        }
      ],
      "stateMutability": "view",
      "type": "function",
      "constant": true
    },
    {
      "inputs": [
        {
          "internalType": "address",
          "name": "_id",
          "type": "address"
        }
      ],
      "name": "getRole",
      "outputs": [
        {
          "internalType": "string",
          "name": "",
          "type": "string"
        }
      ],
      "stateMutability": "view",
      "type": "function",
      "constant": true
    }
  ],
  "bytecode": "0x60806040523480156200001157600080fd5b5060405162000eac38038062000eac833981810160405281019062000037919062000147565b826000806101000a81548173ffffffffffffffffffffffffffffffffffffffff021916908373ffffffffffffffffffffffffffffffffffffffff16021790555081600160006101000a81548173ffffffffffffffffffffffffffffffffffffffff021916908373ffffffffffffffffffffffffffffffffffffffff16021790555080600260006101000a81548173ffffffffffffffffffffffffffffffffffffffff021916908373ffffffffffffffffffffffffffffffffffffffff1602179055505050506200025b565b60008151905062000113816200020d565b92915050565b6000815190506200012a8162000227565b92915050565b600081519050620001418162000241565b92915050565b6000806000606084860312156200015d57600080fd5b60006200016d8682870162000102565b9350506020620001808682870162000130565b9250506040620001938682870162000119565b9150509250925092565b6000620001aa82620001ed565b9050919050565b6000620001be826200019d565b9050919050565b6000620001d2826200019d565b9050919050565b6000620001e6826200019d565b9050919050565b600073ffffffffffffffffffffffffffffffffffffffff82169050919050565b6200021881620001b1565b81146200022457600080fd5b50565b6200023281620001c5565b81146200023e57600080fd5b50565b6200024c81620001d9565b81146200025857600080fd5b50565b610c41806200026b6000396000f3fe608060405234801561001057600080fd5b506004361061004c5760003560e01c806326bed66614610051578063442767331461006f5780638095a3d11461009f578063f0331393146100bd575b600080fd5b6100596100db565b60405161006691906109c5565b60405180910390f35b6100896004803603810190610084919061082b565b6100ff565b6040516100969190610a16565b60405180910390f35b6100a761074d565b6040516100b491906109fb565b60405180910390f35b6100c5610773565b6040516100d291906109e0565b60405180910390f35b60008054906101000a900473ffffffffffffffffffffffffffffffffffffffff1681565b606060405160200161011090610995565b6040516020818303038152906040528051906020012060008054906101000a900473ffffffffffffffffffffffffffffffffffffffff1673ffffffffffffffffffffffffffffffffffffffff166344276733846040518263ffffffff1660e01b815260040161017f91906109aa565b60006040518083038186803b15801561019757600080fd5b505afa1580156101ab573d6000803e3d6000fd5b505050506040513d6000823e3d601f19601f820116820180604052508101906101d4919061087d565b6040516020016101e4919061097e565b60405160208183030381529060405280519060200120146102b45760008054906101000a900473ffffffffffffffffffffffffffffffffffffffff1673ffffffffffffffffffffffffffffffffffffffff166344276733836040518263ffffffff1660e01b815260040161025891906109aa565b60006040518083038186803b15801561027057600080fd5b505afa158015610284573d6000803e3d6000fd5b505050506040513d6000823e3d601f19601f820116820180604052508101906102ad919061087d565b9050610748565b6040516020016102c390610995565b60405160208183030381529060405280519060200120600160009054906101000a900473ffffffffffffffffffffffffffffffffffffffff1673ffffffffffffffffffffffffffffffffffffffff166344276733846040518263ffffffff1660e01b815260040161033491906109aa565b60006040518083038186803b15801561034c57600080fd5b505afa158015610360573d6000803e3d6000fd5b505050506040513d6000823e3d601f19601f82011682018060405250810190610389919061087d565b604051602001610399919061097e565b604051602081830303815290604052805190602001201461046b57600160009054906101000a900473ffffffffffffffffffffffffffffffffffffffff1673ffffffffffffffffffffffffffffffffffffffff166344276733836040518263ffffffff1660e01b815260040161040f91906109aa565b60006040518083038186803b15801561042757600080fd5b505afa15801561043b573d6000803e3d6000fd5b505050506040513d6000823e3d601f19601f82011682018060405250810190610464919061087d565b9050610748565b60405160200161047a90610995565b60405160208183030381529060405280519060200120600260009054906101000a900473ffffffffffffffffffffffffffffffffffffffff1673ffffffffffffffffffffffffffffffffffffffff166344276733846040518263ffffffff1660e01b81526004016104eb91906109aa565b60006040518083038186803b15801561050357600080fd5b505afa158015610517573d6000803e3d6000fd5b505050506040513d6000823e3d601f19601f82011682018060405250810190610540919061087d565b604051602001610550919061097e565b604051602081830303815290604052805190602001201461062257600260009054906101000a900473ffffffffffffffffffffffffffffffffffffffff1673ffffffffffffffffffffffffffffffffffffffff166344276733836040518263ffffffff1660e01b81526004016105c691906109aa565b60006040518083038186803b1580156105de57600080fd5b505afa1580156105f2573d6000803e3d6000fd5b505050506040513d6000823e3d601f19601f8201168201806040525081019061061b919061087d565b9050610748565b600260009054906101000a900473ffffffffffffffffffffffffffffffffffffffff1673ffffffffffffffffffffffffffffffffffffffff166324d7806c836040518263ffffffff1660e01b815260040161067d91906109aa565b60206040518083038186803b15801561069557600080fd5b505afa1580156106a9573d6000803e3d6000fd5b505050506040513d601f19601f820116820180604052508101906106cd9190610854565b1561070f576040518060400160405280600581526020017f61646d696e0000000000000000000000000000000000000000000000000000008152509050610748565b6040518060400160405280600381526020017f6e6577000000000000000000000000000000000000000000000000000000000081525090505b919050565b600160009054906101000a900473ffffffffffffffffffffffffffffffffffffffff1681565b600260009054906101000a900473ffffffffffffffffffffffffffffffffffffffff1681565b60006107ac6107a784610a69565b610a38565b9050828152602081018484840111156107c457600080fd5b6107cf848285610b6a565b509392505050565b6000813590506107e681610bdd565b92915050565b6000815190506107fb81610bf4565b92915050565b600082601f83011261081257600080fd5b8151610822848260208601610799565b91505092915050565b60006020828403121561083d57600080fd5b600061084b848285016107d7565b91505092915050565b60006020828403121561086657600080fd5b6000610874848285016107ec565b91505092915050565b60006020828403121561088f57600080fd5b600082015167ffffffffffffffff8111156108a957600080fd5b6108b584828501610801565b91505092915050565b6108c781610ac0565b82525050565b6108d681610afe565b82525050565b6108e581610b22565b82525050565b6108f481610b46565b82525050565b600061090582610a99565b61090f8185610aa4565b935061091f818560208601610b6a565b61092881610bcc565b840191505092915050565b600061093e82610a99565b6109488185610ab5565b9350610958818560208601610b6a565b80840191505092915050565b6000610971600083610ab5565b9150600082019050919050565b600061098a8284610933565b915081905092915050565b60006109a082610964565b9150819050919050565b60006020820190506109bf60008301846108be565b92915050565b60006020820190506109da60008301846108cd565b92915050565b60006020820190506109f560008301846108dc565b92915050565b6000602082019050610a1060008301846108eb565b92915050565b60006020820190508181036000830152610a3081846108fa565b905092915050565b6000604051905081810181811067ffffffffffffffff82111715610a5f57610a5e610b9d565b5b8060405250919050565b600067ffffffffffffffff821115610a8457610a83610b9d565b5b601f19601f8301169050602081019050919050565b600081519050919050565b600082825260208201905092915050565b600081905092915050565b6000610acb82610ade565b9050919050565b60008115159050919050565b600073ffffffffffffffffffffffffffffffffffffffff82169050919050565b6000610b0982610b10565b9050919050565b6000610b1b82610ade565b9050919050565b6000610b2d82610b34565b9050919050565b6000610b3f82610ade565b9050919050565b6000610b5182610b58565b9050919050565b6000610b6382610ade565b9050919050565b60005b83811015610b88578082015181840152602081019050610b6d565b83811115610b97576000848401525b50505050565b7f4e487b7100000000000000000000000000000000000000000000000000000000600052604160045260246000fd5b6000601f19601f8301169050919050565b610be681610ac0565b8114610bf157600080fd5b50565b610bfd81610ad2565b8114610c0857600080fd5b5056fea264697066735822122014335452b33f069dea869e8984adff717e6dbd30f5889f58c72ded315fbaf08164736f6c63430008000033",
  "immutableReferences": {},
  "source": "// SPDX-License-Identifier: MIT\npragma solidity ^0.8.0;\nimport './CentralGov.sol';\nimport './StateGov.sol';\nimport './Stakeholder.sol';\nimport './Product.sol';\n\ncontract Main{\n  CentralGov public centralGov;\n  StateGov public stateGov;\n  Stakeholder public stakeholder;\n\n  constructor(CentralGov _centralGov, StateGov _stateGov, Stakeholder _stakeholder) {\n    centralGov = _centralGov;\n    stateGov = _stateGov;\n    stakeholder = _stakeholder;\n  }\n\n  function getRole(address _id) public view returns(string memory){\n    if(keccak256(abi.encodePacked((centralGov.getRole(_id)))) != keccak256(abi.encodePacked((\"\")))){\n      return centralGov.getRole(_id);\n    }\n    else if(keccak256(abi.encodePacked((stateGov.getRole(_id)))) != keccak256(abi.encodePacked((\"\")))){\n      return stateGov.getRole(_id);\n    }\n    else if(keccak256(abi.encodePacked((stakeholder.getRole(_id)))) != keccak256(abi.encodePacked((\"\")))){\n      return stakeholder.getRole(_id);\n    }\n    else if(stakeholder.isAdmin(_id)){\n      return \"admin\";\n    }\n    else{\n      return \"new\";\n    }\n  }\n}",
  "sourcePath": "/home/motwaniv/Desktop/Minor_style/src/Smart-Contract/Contracts/Main.sol",
  "compiler": {
    "name": "solc",
    "version": "0.8.0+commit.c7dfd78e.Emscripten.clang"
  },
  "schemaVersion": "3.4.16",
  "updatedAt": "2024-05-15T10:03:52.252Z",
  "networkType": "ethereum",
  "devdoc": {
    "kind": "dev",
    "methods": {},
    "version": 1
  },
  "userdoc": {
    "kind": "user",
    "methods": {},
    "version": 1
  }
}