{
  "contractName": "StateGov",
  "abi": [
    {
      "inputs": [],
      "stateMutability": "nonpayable",
      "type": "constructor"
    },
    {
      "inputs": [
        {
          "internalType": "address",
          "name": "",
          "type": "address"
        }
      ],
      "name": "_isRenewableUsed",
      "outputs": [
        {
          "internalType": "bool",
          "name": "",
          "type": "bool"
        }
      ],
      "stateMutability": "view",
      "type": "function",
      "constant": true
    },
    {
      "inputs": [
        {
          "internalType": "address",
          "name": "",
          "type": "address"
        },
        {
          "internalType": "uint256",
          "name": "",
          "type": "uint256"
        }
      ],
      "name": "_launchedProducts",
      "outputs": [
        {
          "internalType": "uint256",
          "name": "",
          "type": "uint256"
        }
      ],
      "stateMutability": "view",
      "type": "function",
      "constant": true
    },
    {
      "inputs": [
        {
          "internalType": "address",
          "name": "",
          "type": "address"
        },
        {
          "internalType": "string",
          "name": "",
          "type": "string"
        },
        {
          "internalType": "uint256",
          "name": "",
          "type": "uint256"
        }
      ],
      "name": "_rawProductSuppliers",
      "outputs": [
        {
          "internalType": "address",
          "name": "",
          "type": "address"
        }
      ],
      "stateMutability": "view",
      "type": "function",
      "constant": true
    },
    {
      "inputs": [
        {
          "internalType": "address",
          "name": "",
          "type": "address"
        },
        {
          "internalType": "string",
          "name": "",
          "type": "string"
        }
      ],
      "name": "_rawProductVerified",
      "outputs": [
        {
          "internalType": "bool",
          "name": "",
          "type": "bool"
        }
      ],
      "stateMutability": "view",
      "type": "function",
      "constant": true
    },
    {
      "inputs": [
        {
          "internalType": "address",
          "name": "",
          "type": "address"
        },
        {
          "internalType": "uint256",
          "name": "",
          "type": "uint256"
        }
      ],
      "name": "_rawProducts",
      "outputs": [
        {
          "internalType": "string",
          "name": "",
          "type": "string"
        }
      ],
      "stateMutability": "view",
      "type": "function",
      "constant": true
    },
    {
      "inputs": [],
      "name": "admin",
      "outputs": [
        {
          "internalType": "address",
          "name": "",
          "type": "address"
        }
      ],
      "stateMutability": "view",
      "type": "function",
      "constant": true
    },
    {
      "inputs": [
        {
          "internalType": "address",
          "name": "_id",
          "type": "address"
        }
      ],
      "name": "get",
      "outputs": [
        {
          "components": [
            {
              "internalType": "address",
              "name": "id",
              "type": "address"
            },
            {
              "internalType": "string",
              "name": "name",
              "type": "string"
            },
            {
              "internalType": "string",
              "name": "location",
              "type": "string"
            },
            {
              "internalType": "string",
              "name": "role",
              "type": "string"
            },
            {
              "internalType": "bool",
              "name": "isVerified",
              "type": "bool"
            }
          ],
          "internalType": "struct Stakeholder.stakeholder",
          "name": "",
          "type": "tuple"
        }
      ],
      "stateMutability": "view",
      "type": "function",
      "constant": true
    },
    {
      "inputs": [],
      "name": "getAddresses",
      "outputs": [
        {
          "internalType": "address[]",
          "name": "",
          "type": "address[]"
        }
      ],
      "stateMutability": "view",
      "type": "function",
      "constant": true
    },
    {
      "inputs": [
        {
          "internalType": "address",
          "name": "_id",
          "type": "address"
        }
      ],
      "name": "getRole",
      "outputs": [
        {
          "internalType": "string",
          "name": "",
          "type": "string"
        }
      ],
      "stateMutability": "view",
      "type": "function",
      "constant": true
    },
    {
      "inputs": [
        {
          "internalType": "address",
          "name": "_account",
          "type": "address"
        }
      ],
      "name": "isAdmin",
      "outputs": [
        {
          "internalType": "bool",
          "name": "",
          "type": "bool"
        }
      ],
      "stateMutability": "view",
      "type": "function",
      "constant": true
    },
    {
      "inputs": [
        {
          "internalType": "address",
          "name": "_owner",
          "type": "address"
        },
        {
          "internalType": "address",
          "name": "_operator",
          "type": "address"
        }
      ],
      "name": "isApprovedForAll",
      "outputs": [
        {
          "internalType": "bool",
          "name": "",
          "type": "bool"
        }
      ],
      "stateMutability": "view",
      "type": "function",
      "constant": true
    },
    {
      "inputs": [
        {
          "internalType": "address",
          "name": "_id",
          "type": "address"
        }
      ],
      "name": "isVerified",
      "outputs": [
        {
          "internalType": "bool",
          "name": "",
          "type": "bool"
        }
      ],
      "stateMutability": "view",
      "type": "function",
      "constant": true
    },
    {
      "inputs": [
        {
          "internalType": "address",
          "name": "_operator",
          "type": "address"
        },
        {
          "internalType": "bool",
          "name": "_approved",
          "type": "bool"
        }
      ],
      "name": "setApprovalForAll",
      "outputs": [
        {
          "internalType": "bool",
          "name": "",
          "type": "bool"
        }
      ],
      "stateMutability": "nonpayable",
      "type": "function"
    },
    {
      "inputs": [
        {
          "internalType": "address",
          "name": "_from",
          "type": "address"
        },
        {
          "internalType": "address",
          "name": "_to",
          "type": "address"
        },
        {
          "internalType": "uint256",
          "name": "_productId",
          "type": "uint256"
        }
      ],
      "name": "transferFrom",
      "outputs": [
        {
          "internalType": "bool",
          "name": "",
          "type": "bool"
        }
      ],
      "stateMutability": "nonpayable",
      "type": "function"
    },
    {
      "inputs": [
        {
          "internalType": "address",
          "name": "_id",
          "type": "address"
        }
      ],
      "name": "verify",
      "outputs": [
        {
          "internalType": "bool",
          "name": "",
          "type": "bool"
        }
      ],
      "stateMutability": "nonpayable",
      "type": "function"
    },
    {
      "inputs": [
        {
          "internalType": "string",
          "name": "_name",
          "type": "string"
        },
        {
          "internalType": "string",
          "name": "_location",
          "type": "string"
        },
        {
          "internalType": "string",
          "name": "_role",
          "type": "string"
        }
      ],
      "name": "register",
      "outputs": [
        {
          "internalType": "bool",
          "name": "",
          "type": "bool"
        }
      ],
      "stateMutability": "nonpayable",
      "type": "function"
    },
    {
      "inputs": [
        {
          "internalType": "string",
          "name": "_name",
          "type": "string"
        },
        {
          "components": [
            {
              "internalType": "address",
              "name": "id",
              "type": "address"
            },
            {
              "internalType": "bool",
              "name": "isVerified",
              "type": "bool"
            }
          ],
          "internalType": "struct StateGov.supplier[]",
          "name": "_suppliers",
          "type": "tuple[]"
        }
      ],
      "name": "addRawProduct",
      "outputs": [
        {
          "internalType": "bool",
          "name": "",
          "type": "bool"
        }
      ],
      "stateMutability": "nonpayable",
      "type": "function"
    },
    {
      "inputs": [
        {
          "internalType": "address",
          "name": "_id",
          "type": "address"
        }
      ],
      "name": "getStateGovRawProductDetails",
      "outputs": [
        {
          "components": [
            {
              "internalType": "string",
              "name": "name",
              "type": "string"
            },
            {
              "internalType": "address[]",
              "name": "boughtFromIds",
              "type": "address[]"
            },
            {
              "internalType": "bool",
              "name": "isVerified",
              "type": "bool"
            }
          ],
          "internalType": "struct StateGov.rawProduct[]",
          "name": "",
          "type": "tuple[]"
        }
      ],
      "stateMutability": "view",
      "type": "function",
      "constant": true
    },
    {
      "inputs": [
        {
          "internalType": "address",
          "name": "id",
          "type": "address"
        }
      ],
      "name": "getStateGov",
      "outputs": [
        {
          "components": [
            {
              "internalType": "address",
              "name": "id",
              "type": "address"
            },
            {
              "internalType": "string",
              "name": "name",
              "type": "string"
            },
            {
              "internalType": "string",
              "name": "location",
              "type": "string"
            },
            {
              "internalType": "string",
              "name": "role",
              "type": "string"
            },
            {
              "internalType": "bool",
              "name": "isVerified",
              "type": "bool"
            }
          ],
          "internalType": "struct Stakeholder.stakeholder",
          "name": "stateGov",
          "type": "tuple"
        },
        {
          "internalType": "bool",
          "name": "isRenewableUsed",
          "type": "bool"
        },
        {
          "components": [
            {
              "internalType": "string",
              "name": "name",
              "type": "string"
            },
            {
              "internalType": "address[]",
              "name": "boughtFromIds",
              "type": "address[]"
            },
            {
              "internalType": "bool",
              "name": "isVerified",
              "type": "bool"
            }
          ],
          "internalType": "struct StateGov.rawProduct[]",
          "name": "rawProducts",
          "type": "tuple[]"
        },
        {
          "internalType": "uint256[]",
          "name": "launchedProductIds",
          "type": "uint256[]"
        }
      ],
      "stateMutability": "view",
      "type": "function",
      "constant": true
    },
    {
      "inputs": [
        {
          "internalType": "uint256",
          "name": "_id",
          "type": "uint256"
        }
      ],
      "name": "launchProduct",
      "outputs": [
        {
          "internalType": "bool",
          "name": "",
          "type": "bool"
        }
      ],
      "stateMutability": "nonpayable",
      "type": "function"
    },
    {
      "inputs": [
        {
          "internalType": "address",
          "name": "id",
          "type": "address"
        }
      ],
      "name": "updateEnergy",
      "outputs": [
        {
          "internalType": "bool",
          "name": "",
          "type": "bool"
        }
      ],
      "stateMutability": "nonpayable",
      "type": "function"
    }
  ],
  "bytecode": "0x608060405234801561001057600080fd5b5033806000806101000a81548173ffffffffffffffffffffffffffffffffffffffff021916908373ffffffffffffffffffffffffffffffffffffffff16021790555050613769806100626000396000f3fe608060405234801561001057600080fd5b50600436106101375760003560e01c806363a9c3d7116100b8578063b9209e331161007c578063b9209e33146103fd578063c2bc2efc1461042d578063ca9840b21461045d578063dfcb137d1461048d578063e985e9c5146104bd578063f851a440146104ed57610137565b806363a9c3d71461031c5780638d9470111461034c578063a22cb4651461037f578063a39fac12146103af578063ae48e5da146103cd57610137565b806344276733116100ff578063442767331461022c57806344a9c5c61461025c5780634afada0a1461028c5780634cd08d03146102bc5780636330a4a8146102ec57610137565b806323b872dd1461013c57806324d7806c1461016c5780632cfe63fb1461019c578063305019a0146101cc57806340d1a208146101fc575b600080fd5b610156600480360381019061015191906127ac565b61050b565b6040516101639190613201565b60405180910390f35b61018660048036038101906101819190612747565b6107be565b6040516101939190613201565b60405180910390f35b6101b660048036038101906101b1919061288b565b610817565b6040516101c391906131a2565b60405180910390f35b6101e660048036038101906101e19190612747565b610888565b6040516101f391906131df565b60405180910390f35b610216600480360381019061021191906128f2565b610de6565b604051610223919061321c565b60405180910390f35b61024660048036038101906102419190612747565b610e9f565b604051610253919061321c565b60405180910390f35b6102766004803603810190610271919061292e565b610f73565b6040516102839190613201565b60405180910390f35b6102a660048036038101906102a19190612837565b6113fa565b6040516102b39190613201565b60405180910390f35b6102d660048036038101906102d1919061299a565b61143f565b6040516102e39190613201565b60405180910390f35b61030660048036038101906103019190612747565b611717565b6040516103139190613201565b60405180910390f35b61033660048036038101906103319190612747565b611737565b6040516103439190613201565b60405180910390f35b61036660048036038101906103619190612747565b6117f5565b6040516103769493929190613340565b60405180910390f35b610399600480360381019061039491906127fb565b611be1565b6040516103a69190613201565b60405180910390f35b6103b7611d60565b6040516103c491906131bd565b60405180910390f35b6103e760048036038101906103e29190612747565b611dee565b6040516103f49190613201565b60405180910390f35b61041760048036038101906104129190612747565b611eaa565b6040516104249190613201565b60405180910390f35b61044760048036038101906104429190612747565b611f03565b604051610454919061331e565b60405180910390f35b61047760048036038101906104729190612a31565b6122ee565b6040516104849190613201565b60405180910390f35b6104a760048036038101906104a291906128f2565b6123c8565b6040516104b4919061339a565b60405180910390f35b6104d760048036038101906104d29190612770565b6123f9565b6040516104e49190613201565b60405180910390f35b6104f561248d565b60405161050291906131a2565b60405180910390f35b600083826000600260008473ffffffffffffffffffffffffffffffffffffffff1673ffffffffffffffffffffffffffffffffffffffff168152602001908152602001600020600083815260200190815260200160002060009054906101000a900460ff169050600061057d84336123f9565b806105b357508373ffffffffffffffffffffffffffffffffffffffff163373ffffffffffffffffffffffffffffffffffffffff16145b90508180156105bf5750805b6105fe576040517f08c379a00000000000000000000000000000000000000000000000000000000081526004016105f5906132de565b60405180910390fd5b8673ffffffffffffffffffffffffffffffffffffffff168873ffffffffffffffffffffffffffffffffffffffff16141561066d576040517f08c379a0000000000000000000000000000000000000000000000000000000008152600401610664906132be565b60405180910390fd5b600073ffffffffffffffffffffffffffffffffffffffff168773ffffffffffffffffffffffffffffffffffffffff1614156106dd576040517f08c379a00000000000000000000000000000000000000000000000000000000081526004016106d49061327e565b60405180910390fd5b6000600260008a73ffffffffffffffffffffffffffffffffffffffff1673ffffffffffffffffffffffffffffffffffffffff168152602001908152602001600020600088815260200190815260200160002060006101000a81548160ff0219169083151502179055506001600260008973ffffffffffffffffffffffffffffffffffffffff1673ffffffffffffffffffffffffffffffffffffffff168152602001908152602001600020600088815260200190815260200160002060006101000a81548160ff02191690831515021790555060019450505050509392505050565b60008060009054906101000a900473ffffffffffffffffffffffffffffffffffffffff1673ffffffffffffffffffffffffffffffffffffffff168273ffffffffffffffffffffffffffffffffffffffff16149050919050565b600760205282600052604060002082805160208101820180518482526020830160208501208183528095505050505050818154811061085557600080fd5b90600052602060002001600092509250509054906101000a900473ffffffffffffffffffffffffffffffffffffffff1681565b60606000600660008473ffffffffffffffffffffffffffffffffffffffff1673ffffffffffffffffffffffffffffffffffffffff1681526020019081526020016000208054905067ffffffffffffffff81111561090e577f4e487b7100000000000000000000000000000000000000000000000000000000600052604160045260246000fd5b60405190808252806020026020018201604052801561094757816020015b6109346124b1565b81526020019060019003908161092c5790505b50905060005b600660008573ffffffffffffffffffffffffffffffffffffffff1673ffffffffffffffffffffffffffffffffffffffff16815260200190815260200160002080549050811015610ddc57600660008573ffffffffffffffffffffffffffffffffffffffff1673ffffffffffffffffffffffffffffffffffffffff1681526020019081526020016000208181548110610a0e577f4e487b7100000000000000000000000000000000000000000000000000000000600052603260045260246000fd5b906000526020600020018054610a23906135d5565b80601f0160208091040260200160405190810160405280929190818152602001828054610a4f906135d5565b8015610a9c5780601f10610a7157610100808354040283529160200191610a9c565b820191906000526020600020905b815481529060010190602001808311610a7f57829003601f168201915b5050505050828281518110610ada577f4e487b7100000000000000000000000000000000000000000000000000000000600052603260045260246000fd5b602002602001015160000181905250600760008573ffffffffffffffffffffffffffffffffffffffff1673ffffffffffffffffffffffffffffffffffffffff168152602001908152602001600020600660008673ffffffffffffffffffffffffffffffffffffffff1673ffffffffffffffffffffffffffffffffffffffff1681526020019081526020016000208281548110610b9f577f4e487b7100000000000000000000000000000000000000000000000000000000600052603260045260246000fd5b90600052602060002001604051610bb6919061318b565b9081526020016040518091039020805480602002602001604051908101604052809291908181526020018280548015610c4457602002820191906000526020600020905b8160009054906101000a900473ffffffffffffffffffffffffffffffffffffffff1673ffffffffffffffffffffffffffffffffffffffff1681526020019060010190808311610bfa575b5050505050828281518110610c82577f4e487b7100000000000000000000000000000000000000000000000000000000600052603260045260246000fd5b602002602001015160200181905250600860008573ffffffffffffffffffffffffffffffffffffffff1673ffffffffffffffffffffffffffffffffffffffff168152602001908152602001600020600660008673ffffffffffffffffffffffffffffffffffffffff1673ffffffffffffffffffffffffffffffffffffffff1681526020019081526020016000208281548110610d47577f4e487b7100000000000000000000000000000000000000000000000000000000600052603260045260246000fd5b90600052602060002001604051610d5e919061318b565b908152602001604051809103902060009054906101000a900460ff16828281518110610db3577f4e487b7100000000000000000000000000000000000000000000000000000000600052603260045260246000fd5b602002602001015160400190151590811515815250508080610dd490613607565b91505061094d565b5080915050919050565b60066020528160005260406000208181548110610e0257600080fd5b90600052602060002001600091509150508054610e1e906135d5565b80601f0160208091040260200160405190810160405280929190818152602001828054610e4a906135d5565b8015610e975780601f10610e6c57610100808354040283529160200191610e97565b820191906000526020600020905b815481529060010190602001808311610e7a57829003601f168201915b505050505081565b6060600160008373ffffffffffffffffffffffffffffffffffffffff1673ffffffffffffffffffffffffffffffffffffffff1681526020019081526020016000206003018054610eee906135d5565b80601f0160208091040260200160405190810160405280929190818152602001828054610f1a906135d5565b8015610f675780601f10610f3c57610100808354040283529160200191610f67565b820191906000526020600020905b815481529060010190602001808311610f4a57829003601f168201915b50505050509050919050565b6000806000905060005b600660003373ffffffffffffffffffffffffffffffffffffffff1673ffffffffffffffffffffffffffffffffffffffff168152602001908152602001600020805490508110156110b35784604051602001610fd89190613174565b60405160208183030381529060405280519060200120600660003373ffffffffffffffffffffffffffffffffffffffff1673ffffffffffffffffffffffffffffffffffffffff1681526020019081526020016000208281548110611065577f4e487b7100000000000000000000000000000000000000000000000000000000600052603260045260246000fd5b9060005260206000200160405160200161107f919061318b565b6040516020818303038152906040528051906020012014156110a057600191505b80806110ab90613607565b915050610f7d565b508061113357600660003373ffffffffffffffffffffffffffffffffffffffff1673ffffffffffffffffffffffffffffffffffffffff168152602001908152602001600020849080600181540180825580915050600190039060005260206000200160009091909190915090805190602001906111319291906124d4565b505b6001600860003373ffffffffffffffffffffffffffffffffffffffff1673ffffffffffffffffffffffffffffffffffffffff168152602001908152602001600020856040516111829190613174565b908152602001604051809103902060006101000a81548160ff02191690831515021790555060005b83518110156113ee57600760003373ffffffffffffffffffffffffffffffffffffffff1673ffffffffffffffffffffffffffffffffffffffff168152602001908152602001600020856040516112009190613174565b9081526020016040518091039020848281518110611247577f4e487b7100000000000000000000000000000000000000000000000000000000600052603260045260246000fd5b6020026020010151600001519080600181540180825580915050600190039060005260206000200160009091909190916101000a81548173ffffffffffffffffffffffffffffffffffffffff021916908373ffffffffffffffffffffffffffffffffffffffff160217905550600860003373ffffffffffffffffffffffffffffffffffffffff1673ffffffffffffffffffffffffffffffffffffffff168152602001908152602001600020856040516113009190613174565b908152602001604051809103902060009054906101000a900460ff168015611369575083818151811061135c577f4e487b7100000000000000000000000000000000000000000000000000000000600052603260045260246000fd5b6020026020010151602001515b600860003373ffffffffffffffffffffffffffffffffffffffff1673ffffffffffffffffffffffffffffffffffffffff168152602001908152602001600020866040516113b69190613174565b908152602001604051809103902060006101000a81548160ff02191690831515021790555080806113e690613607565b9150506111aa565b50600191505092915050565b6008602052816000526040600020818051602081018201805184825260208301602085012081835280955050505050506000915091509054906101000a900460ff1681565b60008073ffffffffffffffffffffffffffffffffffffffff16600160003373ffffffffffffffffffffffffffffffffffffffff1673ffffffffffffffffffffffffffffffffffffffff16815260200190815260200160002060000160009054906101000a900473ffffffffffffffffffffffffffffffffffffffff1673ffffffffffffffffffffffffffffffffffffffff1614611511576040517f08c379a00000000000000000000000000000000000000000000000000000000081526004016115089061323e565b60405180910390fd5b6040518060a001604052803373ffffffffffffffffffffffffffffffffffffffff16815260200185815260200184815260200183815260200160001515815250600160003373ffffffffffffffffffffffffffffffffffffffff1673ffffffffffffffffffffffffffffffffffffffff16815260200190815260200160002060008201518160000160006101000a81548173ffffffffffffffffffffffffffffffffffffffff021916908373ffffffffffffffffffffffffffffffffffffffff16021790555060208201518160010190805190602001906115f39291906124d4565b5060408201518160020190805190602001906116109291906124d4565b50606082015181600301908051906020019061162d9291906124d4565b5060808201518160040160006101000a81548160ff0219169083151502179055509050506000600560003373ffffffffffffffffffffffffffffffffffffffff1673ffffffffffffffffffffffffffffffffffffffff16815260200190815260200160002060006101000a81548160ff0219169083151502179055506004339080600181540180825580915050600190039060005260206000200160009091909190916101000a81548173ffffffffffffffffffffffffffffffffffffffff021916908373ffffffffffffffffffffffffffffffffffffffff160217905550600190509392505050565b60056020528060005260406000206000915054906101000a900460ff1681565b60008060009054906101000a900473ffffffffffffffffffffffffffffffffffffffff1673ffffffffffffffffffffffffffffffffffffffff163373ffffffffffffffffffffffffffffffffffffffff161461179257600080fd5b60018060008473ffffffffffffffffffffffffffffffffffffffff1673ffffffffffffffffffffffffffffffffffffffff16815260200190815260200160002060040160006101000a81548160ff02191690831515021790555060019050919050565b6117fd61255a565b60006060806040518060a001604052808673ffffffffffffffffffffffffffffffffffffffff168152602001600160008873ffffffffffffffffffffffffffffffffffffffff1673ffffffffffffffffffffffffffffffffffffffff1681526020019081526020016000206001018054611876906135d5565b80601f01602080910402602001604051908101604052809291908181526020018280546118a2906135d5565b80156118ef5780601f106118c4576101008083540402835291602001916118ef565b820191906000526020600020905b8154815290600101906020018083116118d257829003601f168201915b50505050508152602001600160008873ffffffffffffffffffffffffffffffffffffffff1673ffffffffffffffffffffffffffffffffffffffff1681526020019081526020016000206002018054611946906135d5565b80601f0160208091040260200160405190810160405280929190818152602001828054611972906135d5565b80156119bf5780601f10611994576101008083540402835291602001916119bf565b820191906000526020600020905b8154815290600101906020018083116119a257829003601f168201915b50505050508152602001600160008873ffffffffffffffffffffffffffffffffffffffff1673ffffffffffffffffffffffffffffffffffffffff1681526020019081526020016000206003018054611a16906135d5565b80601f0160208091040260200160405190810160405280929190818152602001828054611a42906135d5565b8015611a8f5780601f10611a6457610100808354040283529160200191611a8f565b820191906000526020600020905b815481529060010190602001808311611a7257829003601f168201915b50505050508152602001600160008873ffffffffffffffffffffffffffffffffffffffff1673ffffffffffffffffffffffffffffffffffffffff16815260200190815260200160002060040160009054906101000a900460ff1615158152509350600560008673ffffffffffffffffffffffffffffffffffffffff1673ffffffffffffffffffffffffffffffffffffffff16815260200190815260200160002060009054906101000a900460ff169250611b4885610888565b9150600960008673ffffffffffffffffffffffffffffffffffffffff1673ffffffffffffffffffffffffffffffffffffffff168152602001908152602001600020805480602002602001604051908101604052809291908181526020018280548015611bd357602002820191906000526020600020905b815481526020019060010190808311611bbf575b505050505090509193509193565b60008273ffffffffffffffffffffffffffffffffffffffff163373ffffffffffffffffffffffffffffffffffffffff161415611c52576040517f08c379a0000000000000000000000000000000000000000000000000000000008152600401611c499061325e565b60405180910390fd5b600073ffffffffffffffffffffffffffffffffffffffff168373ffffffffffffffffffffffffffffffffffffffff161415611cc2576040517f08c379a0000000000000000000000000000000000000000000000000000000008152600401611cb9906132fe565b60405180910390fd5b81600360003373ffffffffffffffffffffffffffffffffffffffff1673ffffffffffffffffffffffffffffffffffffffff16815260200190815260200160002060008573ffffffffffffffffffffffffffffffffffffffff1673ffffffffffffffffffffffffffffffffffffffff16815260200190815260200160002060006101000a81548160ff0219169083151502179055506001905092915050565b60606004805480602002602001604051908101604052809291908181526020018280548015611de457602002820191906000526020600020905b8160009054906101000a900473ffffffffffffffffffffffffffffffffffffffff1673ffffffffffffffffffffffffffffffffffffffff1681526020019060010190808311611d9a575b5050505050905090565b60008060009054906101000a900473ffffffffffffffffffffffffffffffffffffffff1673ffffffffffffffffffffffffffffffffffffffff163373ffffffffffffffffffffffffffffffffffffffff1614611e4957600080fd5b6001600560008473ffffffffffffffffffffffffffffffffffffffff1673ffffffffffffffffffffffffffffffffffffffff16815260200190815260200160002060006101000a81548160ff02191690831515021790555060019050919050565b6000600160008373ffffffffffffffffffffffffffffffffffffffff1673ffffffffffffffffffffffffffffffffffffffff16815260200190815260200160002060040160009054906101000a900460ff169050919050565b611f0b61255a565b81600160003373ffffffffffffffffffffffffffffffffffffffff1673ffffffffffffffffffffffffffffffffffffffff16815260200190815260200160002060000160009054906101000a900473ffffffffffffffffffffffffffffffffffffffff1673ffffffffffffffffffffffffffffffffffffffff168173ffffffffffffffffffffffffffffffffffffffff1614806120365750600073ffffffffffffffffffffffffffffffffffffffff16600160003373ffffffffffffffffffffffffffffffffffffffff1673ffffffffffffffffffffffffffffffffffffffff16815260200190815260200160002060000160009054906101000a900473ffffffffffffffffffffffffffffffffffffffff1673ffffffffffffffffffffffffffffffffffffffff16145b612075576040517f08c379a000000000000000000000000000000000000000000000000000000000815260040161206c9061329e565b60405180910390fd5b600160008473ffffffffffffffffffffffffffffffffffffffff1673ffffffffffffffffffffffffffffffffffffffff1681526020019081526020016000206040518060a00160405290816000820160009054906101000a900473ffffffffffffffffffffffffffffffffffffffff1673ffffffffffffffffffffffffffffffffffffffff1673ffffffffffffffffffffffffffffffffffffffff168152602001600182018054612125906135d5565b80601f0160208091040260200160405190810160405280929190818152602001828054612151906135d5565b801561219e5780601f106121735761010080835404028352916020019161219e565b820191906000526020600020905b81548152906001019060200180831161218157829003601f168201915b505050505081526020016002820180546121b7906135d5565b80601f01602080910402602001604051908101604052809291908181526020018280546121e3906135d5565b80156122305780601f1061220557610100808354040283529160200191612230565b820191906000526020600020905b81548152906001019060200180831161221357829003601f168201915b50505050508152602001600382018054612249906135d5565b80601f0160208091040260200160405190810160405280929190818152602001828054612275906135d5565b80156122c25780601f10612297576101008083540402835291602001916122c2565b820191906000526020600020905b8154815290600101906020018083116122a557829003601f168201915b505050505081526020016004820160009054906101000a900460ff161515151581525050915050919050565b6000600960003373ffffffffffffffffffffffffffffffffffffffff1673ffffffffffffffffffffffffffffffffffffffff1681526020019081526020016000208290806001815401808255809150506001900390600052602060002001600090919091909150556001600260003373ffffffffffffffffffffffffffffffffffffffff1673ffffffffffffffffffffffffffffffffffffffff168152602001908152602001600020600084815260200190815260200160002060006101000a81548160ff02191690831515021790555060019050919050565b600960205281600052604060002081815481106123e457600080fd5b90600052602060002001600091509150505481565b6000600360008473ffffffffffffffffffffffffffffffffffffffff1673ffffffffffffffffffffffffffffffffffffffff16815260200190815260200160002060008373ffffffffffffffffffffffffffffffffffffffff1673ffffffffffffffffffffffffffffffffffffffff16815260200190815260200160002060009054906101000a900460ff16905092915050565b60008054906101000a900473ffffffffffffffffffffffffffffffffffffffff1681565b604051806060016040528060608152602001606081526020016000151581525090565b8280546124e0906135d5565b90600052602060002090601f0160209004810192826125025760008555612549565b82601f1061251b57805160ff1916838001178555612549565b82800160010185558215612549579182015b8281111561254857825182559160200191906001019061252d565b5b50905061255691906125a1565b5090565b6040518060a00160405280600073ffffffffffffffffffffffffffffffffffffffff1681526020016060815260200160608152602001606081526020016000151581525090565b5b808211156125ba5760008160009055506001016125a2565b5090565b60006125d16125cc846133e6565b6133b5565b905080838252602082019050828560408602820111156125f057600080fd5b60005b85811015612620578161260688826126e6565b8452602084019350604083019250506001810190506125f3565b5050509392505050565b600061263d61263884613412565b6133b5565b90508281526020810184848401111561265557600080fd5b612660848285613593565b509392505050565b600081359050612677816136ee565b92915050565b600082601f83011261268e57600080fd5b813561269e8482602086016125be565b91505092915050565b6000813590506126b681613705565b92915050565b600082601f8301126126cd57600080fd5b81356126dd84826020860161262a565b91505092915050565b6000604082840312156126f857600080fd5b61270260406133b5565b9050600061271284828501612668565b6000830152506020612726848285016126a7565b60208301525092915050565b6000813590506127418161371c565b92915050565b60006020828403121561275957600080fd5b600061276784828501612668565b91505092915050565b6000806040838503121561278357600080fd5b600061279185828601612668565b92505060206127a285828601612668565b9150509250929050565b6000806000606084860312156127c157600080fd5b60006127cf86828701612668565b93505060206127e086828701612668565b92505060406127f186828701612732565b9150509250925092565b6000806040838503121561280e57600080fd5b600061281c85828601612668565b925050602061282d858286016126a7565b9150509250929050565b6000806040838503121561284a57600080fd5b600061285885828601612668565b925050602083013567ffffffffffffffff81111561287557600080fd5b612881858286016126bc565b9150509250929050565b6000806000606084860312156128a057600080fd5b60006128ae86828701612668565b935050602084013567ffffffffffffffff8111156128cb57600080fd5b6128d7868287016126bc565b92505060406128e886828701612732565b9150509250925092565b6000806040838503121561290557600080fd5b600061291385828601612668565b925050602061292485828601612732565b9150509250929050565b6000806040838503121561294157600080fd5b600083013567ffffffffffffffff81111561295b57600080fd5b612967858286016126bc565b925050602083013567ffffffffffffffff81111561298457600080fd5b6129908582860161267d565b9150509250929050565b6000806000606084860312156129af57600080fd5b600084013567ffffffffffffffff8111156129c957600080fd5b6129d5868287016126bc565b935050602084013567ffffffffffffffff8111156129f257600080fd5b6129fe868287016126bc565b925050604084013567ffffffffffffffff811115612a1b57600080fd5b612a27868287016126bc565b9150509250925092565b600060208284031215612a4357600080fd5b6000612a5184828501612732565b91505092915050565b6000612a668383612a9e565b60208301905092915050565b6000612a7e838361307b565b905092915050565b6000612a928383613156565b60208301905092915050565b612aa78161354b565b82525050565b612ab68161354b565b82525050565b6000612ac782613487565b612ad181856134da565b9350612adc83613442565b8060005b83811015612b0d578151612af48882612a5a565b9750612aff836134b3565b925050600181019050612ae0565b5085935050505092915050565b6000612b2582613487565b612b2f81856134eb565b9350612b3a83613442565b8060005b83811015612b6b578151612b528882612a5a565b9750612b5d836134b3565b925050600181019050612b3e565b5085935050505092915050565b6000612b8382613492565b612b8d81856134fc565b935083602082028501612b9f85613452565b8060005b85811015612bdb5784840389528151612bbc8582612a72565b9450612bc7836134c0565b925060208a01995050600181019050612ba3565b50829750879550505050505092915050565b6000612bf88261349d565b612c02818561350d565b9350612c0d83613462565b8060005b83811015612c3e578151612c258882612a86565b9750612c30836134cd565b925050600181019050612c11565b5085935050505092915050565b612c548161355d565b82525050565b612c638161355d565b82525050565b6000612c74826134a8565b612c7e818561351e565b9350612c8e8185602086016135a2565b612c97816136dd565b840191505092915050565b6000612cad826134a8565b612cb7818561352f565b9350612cc78185602086016135a2565b612cd0816136dd565b840191505092915050565b6000612ce6826134a8565b612cf08185613540565b9350612d008185602086016135a2565b80840191505092915050565b60008154612d19816135d5565b612d238186613540565b94506001821660008114612d3e5760018114612d4f57612d82565b60ff19831686528186019350612d82565b612d5885613472565b60005b83811015612d7a57815481890152600182019150602081019050612d5b565b838801955050505b50505092915050565b6000612d9860378361352f565b91507f5374617465476f763a3a72656769737465725374617465476f763a205374617460008301527f65476f7620616c726561647920726567697374657265640000000000000000006020830152604082019050919050565b6000612dfe603c8361352f565b91507f5374616b65686f6c6465723a3a736574417070726f76616c466f72416c6c3a2060008301527f43616e6e6f742073657420617070726f76616c20666f722073656c66000000006020830152604082019050919050565b6000612e64603a8361352f565b91507f5374616b65686f6c6465723a3a7472616e7366657246726f6d3a2043616e6e6f60008301527f74207472616e7366657220746f206e756c6c20616464726573730000000000006020830152604082019050919050565b6000612eca60298361352f565b91507f4f6e6c79207374616b65686f6c6465722063616e20616363657373207468697360008301527f2066756e6374696f6e00000000000000000000000000000000000000000000006020830152604082019050919050565b6000612f3060328361352f565b91507f5374616b65686f6c6465723a3a7472616e7366657246726f6d3a2043616e6e6f60008301527f74207472616e7366657220746f2073656c6600000000000000000000000000006020830152604082019050919050565b6000612f96602f8361352f565b91507f4f6e6c79206f776e6572206f7220617070726f7665642063616e20616363657360008301527f7320746869732066756e6374696f6e00000000000000000000000000000000006020830152604082019050919050565b6000612ffc60448361352f565b91507f5374616b65686f6c6465723a3a736574417070726f76616c466f72416c6c3a2060008301527f43616e6e6f742073657420617070726f76616c20666f72206e756c6c2061646460208301527f72657373000000000000000000000000000000000000000000000000000000006040830152606082019050919050565b600060608301600083015184820360008601526130988282612c69565b915050602083015184820360208601526130b28282612abc565b91505060408301516130c76040860182612c4b565b508091505092915050565b600060a0830160008301516130ea6000860182612a9e565b50602083015184820360208601526131028282612c69565b9150506040830151848203604086015261311c8282612c69565b915050606083015184820360608601526131368282612c69565b915050608083015161314b6080860182612c4b565b508091505092915050565b61315f81613589565b82525050565b61316e81613589565b82525050565b60006131808284612cdb565b915081905092915050565b60006131978284612d0c565b915081905092915050565b60006020820190506131b76000830184612aad565b92915050565b600060208201905081810360008301526131d78184612b1a565b905092915050565b600060208201905081810360008301526131f98184612b78565b905092915050565b60006020820190506132166000830184612c5a565b92915050565b600060208201905081810360008301526132368184612ca2565b905092915050565b6000602082019050818103600083015261325781612d8b565b9050919050565b6000602082019050818103600083015261327781612df1565b9050919050565b6000602082019050818103600083015261329781612e57565b9050919050565b600060208201905081810360008301526132b781612ebd565b9050919050565b600060208201905081810360008301526132d781612f23565b9050919050565b600060208201905081810360008301526132f781612f89565b9050919050565b6000602082019050818103600083015261331781612fef565b9050919050565b6000602082019050818103600083015261333881846130d2565b905092915050565b6000608082019050818103600083015261335a81876130d2565b90506133696020830186612c5a565b818103604083015261337b8185612b78565b9050818103606083015261338f8184612bed565b905095945050505050565b60006020820190506133af6000830184613165565b92915050565b6000604051905081810181811067ffffffffffffffff821117156133dc576133db6136ae565b5b8060405250919050565b600067ffffffffffffffff821115613401576134006136ae565b5b602082029050602081019050919050565b600067ffffffffffffffff82111561342d5761342c6136ae565b5b601f19601f8301169050602081019050919050565b6000819050602082019050919050565b6000819050602082019050919050565b6000819050602082019050919050565b60008190508160005260206000209050919050565b600081519050919050565b600081519050919050565b600081519050919050565b600081519050919050565b6000602082019050919050565b6000602082019050919050565b6000602082019050919050565b600082825260208201905092915050565b600082825260208201905092915050565b600082825260208201905092915050565b600082825260208201905092915050565b600082825260208201905092915050565b600082825260208201905092915050565b600081905092915050565b600061355682613569565b9050919050565b60008115159050919050565b600073ffffffffffffffffffffffffffffffffffffffff82169050919050565b6000819050919050565b82818337600083830152505050565b60005b838110156135c05780820151818401526020810190506135a5565b838111156135cf576000848401525b50505050565b600060028204905060018216806135ed57607f821691505b602082108114156136015761360061367f565b5b50919050565b600061361282613589565b91507fffffffffffffffffffffffffffffffffffffffffffffffffffffffffffffffff82141561364557613644613650565b5b600182019050919050565b7f4e487b7100000000000000000000000000000000000000000000000000000000600052601160045260246000fd5b7f4e487b7100000000000000000000000000000000000000000000000000000000600052602260045260246000fd5b7f4e487b7100000000000000000000000000000000000000000000000000000000600052604160045260246000fd5b6000601f19601f8301169050919050565b6136f78161354b565b811461370257600080fd5b50565b61370e8161355d565b811461371957600080fd5b50565b61372581613589565b811461373057600080fd5b5056fea2646970667358221220cd48249a32863d7379a5d27c6170540ad448a89bce0c8c8563a40e06ef60d1aa64736f6c63430008000033",
  "immutableReferences": {},
  "source": "// SPDX-License-Identifier: MIT\npragma solidity ^0.8.0;\nimport './Stakeholder.sol';\nimport './CentralGov.sol';\n\ncontract StateGov is Stakeholder {\n\n  struct rawProduct{\n    string name;\n    address[] boughtFromIds;\n    bool isVerified;\n  }\n\n  struct supplier{\n    address id;\n    bool isVerified;\n  }\n\n  mapping(address => bool) public _isRenewableUsed;\n  mapping(address => string[]) public _rawProducts;\n  mapping(address => mapping(string => address[])) public _rawProductSuppliers;\n  mapping(address => mapping(string => bool)) public _rawProductVerified;\n  mapping(address => uint256[]) public _launchedProducts;\n\n  constructor() Stakeholder() {}\n\n  function register(\n    string memory _name, \n    string memory _location,\n    string memory _role\n  ) public override returns (bool) {\n    require (_stakeholders[msg.sender].id ==  address(0), \"StateGov::registerStateGov: StateGov already registered\");\n    _stakeholders[msg.sender] = stakeholder(msg.sender, _name, _location, _role, false);\n    _isRenewableUsed[msg.sender] = false;\n    _stakeholderAddresses.push(msg.sender);\n    return true;\n  }\n\n  function addRawProduct(string memory _name, supplier[] memory _suppliers) public returns (bool){\n    bool productAlreadyAdded = false;\n    for (uint i = 0; i < _rawProducts[msg.sender].length; i++) {\n      if (keccak256(abi.encodePacked((_rawProducts[msg.sender][i]))) == keccak256(abi.encodePacked((_name)))) {\n        productAlreadyAdded = true;\n      }\n    }\n    if(!productAlreadyAdded){\n      _rawProducts[msg.sender].push(_name);\n    }\n    _rawProductVerified[msg.sender][_name] = true;\n    for(uint i =0; i < _suppliers.length; i++){\n      _rawProductSuppliers[msg.sender][_name].push(_suppliers[i].id);\n      _rawProductVerified[msg.sender][_name] = _rawProductVerified[msg.sender][_name] && _suppliers[i].isVerified;\n    }\n    return true;\n  }\n\n  function getStateGovRawProductDetails(address _id) public view returns (rawProduct[] memory){\n    rawProduct[] memory rawProducts = new rawProduct[](_rawProducts[_id].length);\n    for (uint i = 0; i < _rawProducts[_id].length; i++) {\n      rawProducts[i].name = _rawProducts[_id][i];\n      rawProducts[i].boughtFromIds = _rawProductSuppliers[_id][_rawProducts[_id][i]];\n      rawProducts[i].isVerified = _rawProductVerified[_id][_rawProducts[_id][i]];\n    }\n    return rawProducts;\n  }\n\n  function getStateGov(address id) public view returns (\n    stakeholder memory stateGov,\n    bool isRenewableUsed,\n    rawProduct[] memory rawProducts,\n    uint256[] memory launchedProductIds\n  ){\n    stateGov = stakeholder(id, _stakeholders[id].name, _stakeholders[id].location, _stakeholders[id].role, _stakeholders[id].isVerified);\n    isRenewableUsed = _isRenewableUsed[id];\n    rawProducts = getStateGovRawProductDetails(id);\n    launchedProductIds = _launchedProducts[id];\n  }\n\n  function launchProduct(uint256 _id) public returns (bool) {\n    _launchedProducts[msg.sender].push(_id);\n    _stakeholderProductOwnership[msg.sender][_id] = true;\n    return true;\n  }\n\n  function updateEnergy(address id) public onlyAdmin returns (bool) {\n    _isRenewableUsed[id] = true;\n    return true;\n  }\n\n}",
  "sourcePath": "/home/motwaniv/Desktop/Minor_style/src/Smart-Contract/Contracts/StateGov.sol",
  "compiler": {
    "name": "solc",
    "version": "0.8.0+commit.c7dfd78e.Emscripten.clang"
  },
  "schemaVersion": "3.4.16",
  "updatedAt": "2024-05-15T10:03:52.287Z",
  "networkType": "ethereum",
  "devdoc": {
    "kind": "dev",
    "methods": {},
    "version": 1
  },
  "userdoc": {
    "kind": "user",
    "methods": {},
    "version": 1
  }
}